{
  "_format": "hh-sol-artifact-1",
  "contractName": "SimpleStorage",
  "sourceName": "contracts/simple-storage.sol",
  "abi": [
    {
      "anonymous": false,
      "inputs": [
        {
          "indexed": false,
          "internalType": "uint256",
          "name": "newValue",
          "type": "uint256"
        }
      ],
      "name": "ValueUpdated",
      "type": "event"
    },
    {
      "inputs": [],
      "name": "getValue",
      "outputs": [
        {
          "internalType": "uint256",
          "name": "",
          "type": "uint256"
        }
      ],
      "stateMutability": "view",
      "type": "function"
    },
    {
      "inputs": [
        {
          "internalType": "uint256",
          "name": "_value",
          "type": "uint256"
        }
      ],
      "name": "setValue",
      "outputs": [],
      "stateMutability": "nonpayable",
      "type": "function"
    }
  ],
  "bytecode": "0x6080604052348015600e575f5ffd5b5060df80601a5f395ff3fe6080604052348015600e575f5ffd5b50600436106030575f3560e01c80632096525514603457806355241077146048575b5f5ffd5b5f5460405190815260200160405180910390f35b605760533660046093565b6059565b005b5f8190556040518181527f4273d0736f60e0dedfe745e86718093d8ec8646ebd2a60cd60643eeced5658119060200160405180910390a150565b5f6020828403121560a2575f5ffd5b503591905056fea2646970667358221220af1d50401b32473890760c0e57d253b493e062a9a6933ad085a3b27cbc86b80e64736f6c634300081b0033",
  "linkReferences": {},
  "deployedLinkReferences": {}
}